:1000000077C0000094C0000092C0000090C00000C3
:100010008EC000008CC000008AC0000088C00000B4
:1000200086C0000084C0000082C0000080C00000C4
:100030007EC000007CC000007AC0000078C00000D4
:1000400076C0000074C0000072C0000070C00000E4
:100050006EC000006CC000006AC0000068C00000F4
:1000600066C0000064C0000062C0000060C0000004
:100070005EC000005CC000005AC0000058C0000014
:1000800056C0000054C0000052C0000050C0000024
:100090004EC000004CC000004AC0000048C0000034
:1000A00046C0000044C0000042C0000040C0000044
:1000B0003EC000003CC000003AC0000038C0000054
:1000C00036C0000034C0000032C0000030C0000064
:1000D0002EC000002CC000002AC0000028C0000074
:1000E00026C000006364696E6F70737578585B009A
:1000F00011241FBECFEFD1E2DEBFCDBF00E00CBFA9
:1001000012E0A0E0B2E0E4E2FEE000E00BBF02C0DB
:1001100007900D92A832B107D9F722E0A8E2B2E029
:1001200001C01D92AE32B207E1F729D079C668CF7F
:100130009091C00095FFFCCF8093C60080E090E0D6
:1001400008958091C0008823E4F78091C60090E074
:1001500008951092C00088E18093C10086E08093EA
:10016000C20087E68093C4001092C500E8E2F2E086
:1001700080E092E093838283918380830895CF937C
:10018000DF931F921F92CDB7DEB78FEF8DB9E1DFFE
:10019000A0E9B0E082E08C93E1E9F0E088E18083BF
:1001A0008C918C6F8C9380818260808380E49CE949
:1001B000909397008093960088EB9BE09093990032
:1001C000809398008EE092E09F938F9320D0CE0191
:1001D00001969F938F938FE192E09F938F932AD004
:1001E0008A818F9389818F9382E292E09F938F938C
:1001F0000ED089819A81880F991F909399008093DE
:1002000098000FB6F894DEBF0FBECDBFDBCFCF9303
:10021000DF93CDB7DEB7AE014A5F5F4FFA01619160
:100220007191AF0180912A0290912B0216D0DF913B
:10023000CF910895CF93DF93CDB7DEB7AE014A5F7C
:100240005F4FFA0161917191AF0180912802909105
:100250002902B2D3DF91CF9108952F923F924F920E
:100260005F926F927F928F929F92AF92BF92CF9246
:10027000DF92EF92FF920F931F93CF93DF93CDB74F
:10028000DEB72B970FB6F894DEBF0FBECDBF6C0163
:100290007B018A01FC0117821682838181FFBFC125
:1002A000CE0101963C01F6019381F70193FD859102
:1002B00093FF81917F01882309F4ADC1853239F420
:1002C00093FD859193FF81917F01853221F4B601E1
:1002D00090E0F0D4E8CF912C212C312CFFE1F315E4
:1002E000D8F08B3279F038F4803279F08332A1F48F
:1002F000232D20611DC08D3261F0803369F4232DE0
:10030000216016C0832D8260382EE32DE4603E2EDE
:100310002AC0F32DF8601DC037FC2DC020ED280F3A
:100320002A3040F08E32B9F436FC75C1232D20649A
:10033000322E19C036FE06C08AE0989E200D112488
:10034000922E11C0EAE02E9E200D1124222EF32DB4
:10035000F0623F2E08C08C3621F4832D8068382E41
:1003600002C0883641F4F70193FD859193FF819196
:100370007F018111B3CF982F9F7D9554933028F43E
:100380000C5F1F4F9FE399830DC0833631F0833795
:1003900071F0833509F055C020C0F8018081898350
:1003A0000E5F1F4F88248394912C530112C02801A3
:1003B000F2E04F0E511CF801A080B18036FE03C060
:1003C000692D70E002C06FEF7FEFC5012AD44C01A8
:1003D0008201F32DFF773F2E15C0280122E0420E47
:1003E000511CF801A080B18036FE03C0692D70E079
:1003F00002C06FEF7FEFC50109D44C01F32DF06807
:100400003F2E820133FC19C0822D90E08816990698
:10041000A0F4B60180E290E04DD42A94F5CFF50126
:1004200037FC859137FE81915F01B60190E042D49F
:1004300021102A9421E0821A91088114910479F7FD
:10044000E1C0843611F0893639F5F80137FE07C06E
:1004500060817181828193810C5F1F4F08C0608130
:100460007181072E000C880B990B0E5F1F4FF32D27
:10047000FF763F2E97FF09C0909580957095619506
:100480007F4F8F4F9F4FF0683F2E2AE030E0A3014F
:1004900066D4882E861844C0853731F4232D2F7EEC
:1004A000B22E2AE030E025C0932D997FB92E8F36E9
:1004B000C1F018F4883579F0AEC0803719F088376C
:1004C00021F0A9C0E92FE061BE2EB4FE0DC0FB2DC6
:1004D000F460BF2E09C034FE0AC0292F2660B22E58
:1004E00006C028E030E005C020E130E002C020E195
:1004F00032E0F801B7FE07C060817181828193818B
:100500000C5F1F4F06C06081718180E090E00E5F3C
:100510001F4FA30124D4882E8618FB2DFF773F2E72
:1005200036FE0DC0232D2E7FA22E891458F434FEE2
:100530000BC032FC09C0832D8E7EA82E05C0B82CBE
:10054000A32C03C0B82C01C0B92CA4FE0FC0FE011F
:10055000E80DF11D8081803321F49A2D997EA92E1A
:1005600009C0A2FE06C0B394B39404C08A2D867855
:1005700009F0B394A3FC10C0A0FE06C0B21480F42E
:10058000280C922C9B180DC0B21458F4B60180E2CE
:1005900090E090D3B394F8CFB21418F42B1802C0A3
:1005A000982C212CA4FE0FC0B60180E390E082D3EA
:1005B000A2FE16C0A1FC03C088E790E002C088E557
:1005C00090E0B6010CC08A2D867851F0A1FE02C0E1
:1005D0008BE201C080E2A7FC8DE2B60190E06AD315
:1005E000891430F4B60180E390E064D39A94F8CF94
:1005F0008A94F301E80DF11D8081B60190E05AD391
:100600008110F6CF222009F44ECEB60180E290E0B0
:1006100051D32A94F7CFF6018681978102C08FEFDC
:100620009FEF2B960FB6F894DEBF0FBECDBFDF91C4
:10063000CF911F910F91FF90EF90DF90CF90BF90DF
:10064000AF909F908F907F906F905F904F903F9072
:100650002F90089520FD09C0FC0123FD05C022FF55
:1006600002C07383628351834083089544FD17C0A1
:1006700046FD17C0AB01BC01DA01FB01AA0FBB1F8D
:10068000EE1FFF1F1094D1F74A0F5B1F6E1F7F1FD5
:10069000CB01BA01660F771F881F991F09C033E08D
:1006A00001C034E0660F771F881F991F3150D1F7C2
:1006B000620F711D811D911D08950F931F93CF939C
:1006C000DF938C01C801B8D2EC0197FD06C08BD234
:1006D000892BC1F7B801CE0129D3CE01DF91CF918B
:1006E0001F910F9108958F929F92AF92BF92EF92B8
:1006F000FF920F931F93CF93DF938C01D62F7A0134
:10070000B22E9AD29C0133272B32310531F02D3293
:10071000310559F48B2D8068B82ED15011F480E04A
:1007200061C0C80189D297FDFACFCB2DCD7F2B2D8B
:100730002073F9F48033E9F4AA24AA94AD0E09F4E5
:100740003EC0C80179D297FD3AC09C012F7D332766
:100750002835310541F4C264D25089F1C8016CD208
:1007600097FF07C02CC0B6FE02C0C26001C0C261C4
:10077000DA2D812C912C540120ED280F283078F0AF
:10078000C4FF03C0B801D2D217C02A3040F0C6FF60
:10079000F9CF2F7D3FEE320F3630A0F727504C2F88
:1007A000C501B40163DF4B015C01C260D15051F05F
:1007B000C80142D297FFE0CFC1FD04C0B0CF812C69
:1007C000912C5401C7FF08C0B094A09490948094D9
:1007D000811C911CA11CB11C2C2FB501A401C701C7
:1007E00039DF81E0DF91CF911F910F91FF90EF9062
:1007F000BF90AF909F908F9008955F926F927F927D
:100800008F929F92AF92BF92CF92DF92EF92FF9220
:100810000F931F93CF93DF93CDB7DEB7A0970FB69B
:10082000F894DEBF0FBECDBF5C01962E7A01F901B0
:100830008E010F5F1F4F680180E2D8011D928A95DB
:10084000E9F7D50113968C9080E090E0612C712C33
:1008500030E061E070E083FC259183FE21918F01FF
:10086000522E211103C080E090E090C02E3511F48B
:10087000009751F1432F50E0481759073CF42D35AC
:1008800059F12D3219F4772009F103C0772009F4CA
:1008900068C0452D469546954695D601A40FB11DD5
:1008A000452D47708B0102C0000F111F4A95E2F7DA
:1008B000A8015C91452B4C93651459F0561410F423
:1008C0005394E7CF5A94E5CF31E004C07724739472
:1008D00001C0712C0196BFCF772019F08E81806204
:1008E0008E83311103C08824839417C0F6019E01C2
:1008F0002F5D3F4F8081809581932E173F07D1F761
:10090000F2CFE114F10429F0D7018C93F70131966D
:100910007F019A94812C9920E9F0C5018DD197FD32
:1009200017C0FC01FF2723E0F595E7952A95E1F72D
:10093000EC0DFD1D208130E0AC014770552702C051
:10094000359527954A95E2F720FDDBCFB501EED12D
:10095000811089CFE114F10411F0D7011C92C80174
:1009600015C0422F469546954695D601A40FB11D58
:10097000422F47708B0102C0000F111F4A95E2F70A
:10098000A8015C91452B4C93622EA4CFA0960FB684
:10099000F894DEBF0FBECDBFDF91CF911F910F91B5
:1009A000FF90EF90DF90CF90BF90AF909F908F908F
:1009B0007F906F905F9008955F926F927F928F9279
:1009C0009F92AF92BF92CF92DF92EF92FF920F93DE
:1009D0001F93CF93DF936C01EB015A01FC01178247
:1009E0001682512CF601E380FE01E3FC8591E3FEC3
:1009F0008191182FEF01882309F4E0C090E0F3D033
:100A0000892B19F0C60159DEEDCF153241F4FE01F4
:100A1000E3FC1591E3FE1191EF01153271F4C6016B
:100A20000BD197FDC9C0412F50E09C0133272417FB
:100A30003507C1F2B6017AD1C1C01A3239F4E3FCEC
:100A40001591E3FE1191EF0101E001C000E0F12CEE
:100A500020ED210F2A3078F402606F2D70E080E0E5
:100A600090E040E203DEF62EFE01E3FC1591E3FE8A
:100A70001191EF01EDCF01FF03C0F11003C09EC043
:100A8000FF24FA94183619F01C3651F010C0FE01FC
:100A9000E3FC1591E3FE1191EF01183641F4086073
:100AA0000460FE01E3FC1591E3FE1191EF011123B7
:100AB00009F484C0612F70E084EE90E09CD0892B13
:100AC00009F47CC000FD07C0F50180809180C5015C
:100AD00002965C0102C0812C912C1E3649F4F6016D
:100AE0004681578160E070E0202FC401B3DD7ACFEA
:100AF0001336A1F401FD02C0FF24F394C6019CD07B
:100B000097FD5AC08114910429F0F4018083C40137
:100B100001964C01FA94F110F1CF4AC01B3551F403
:100B20009E01A4016F2DC60168DEEC01892B09F03E
:100B30003FC039C0C601C1DD97FD3EC01F3649F137
:100B400028F4143621F1193639F125C0133771F024
:100B50001537E9F020C08114910429F0F401608276
:100B6000C40101964C01FA94FF2059F0C60164D0EB
:100B70003C0197FD06C037D0892B69F3B601C3014C
:100B8000D5D081149104A1F0F401108211C000624B
:100B900003C0006101C00064202FA4016F2DC601B5
:100BA000A2DD811105C0F6018381807329F406C09E
:100BB00000FD18CF539416CF552019F0852D90E0E5
:100BC00002C08FEF9FEFDF91CF911F910F91FF90A8
:100BD000EF90DF90CF90BF90AF909F908F907F90DD
:100BE0006F905F900895911118C1803219F089506B
:100BF0008550D0F70895FC010590061621F00020DD
:100C0000D9F7C00108953197CF010895FC010590EF
:100C1000615070400110D8F7809590958E0F9F1FFE
:100C20000895FC016150704001900110D8F7809543
:100C300090958E0F9F1F0895CF93DF93EC012B812A
:100C400020FF33C026FF0AC02F7B2B838E819F811C
:100C500001969F838E838A8190E029C022FF0FC076
:100C6000E881F9818081082E000C990B009719F416
:100C700020622B831AC03196F983E8830EC0EA857F
:100C8000FB85199597FF09C02B81019611F080E231
:100C900001C080E1822B8B8308C02E813F812F5FB2
:100CA0003F4F3F832E83992702C08FEF9FEFDF9145
:100CB000CF9108950F931F93CF93DF93FB0123816F
:100CC00021FD03C08FEF9FEF2CC022FF16C046818D
:100CD0005781248135814217530744F4A081B181A3
:100CE0009D012F5F3F4F318320838C932681378175
:100CF0002F5F3F4F3783268314C08B01EC01FB012C
:100D00000084F185E02D1995892BE1F6D80116961E
:100D10008D919C911797019617969C938E93169799
:100D2000CE01DF91CF911F910F910895FB01238197
:100D300020FF12C026FD10C08F3F3FEF930761F0E8
:100D400082832F7D206423832681378121503109BE
:100D500037832683992708958FEF9FEF0895FA012F
:100D6000AA27283051F1203181F1E8946F936E7FEA
:100D70006E5F7F4F8F4F9F4FAF4FB1E03ED0B4E0DB
:100D80003CD0670F781F891F9A1FA11D680F791F1C
:100D90008A1F911DA11D6A0F711D811D911DA11D2D
:100DA00020D009F468943F912AE0269F112430193D
:100DB000305D3193DEF6CF010895462F4770405DD8
:100DC0004193B3E00FD0C9F7F6CF462F4F70405D87
:100DD0004A3318F0495D31FD4052419302D0A9F7E2
:100DE000EACFB4E0A6959795879577956795BA95DC
:100DF000C9F700976105710508959B01AC010A2EA2
:100E000006945795479537952795BA95C9F7620F78
:100E1000731F841F951FA01D089599278827089583
:040E2000F894FFCF74
:100E240000000003000000009800A1000000496ECB
:100E34007365727420612076616C75653A200025B3
:080E4400750025750A0D000080
:00000001FF
