:1000000071C000008EC000008CC000008AC00000DB
:1000100088C0000086C0000084C0000082C00000CC
:1000200080C000007EC000007CC000007AC00000DC
:1000300078C0000076C0000074C0000072C00000EC
:1000400070C000006EC000006CC000006AC00000FC
:1000500068C0000066C0000064C0000062C000000C
:1000600060C000005EC000005CC000005AC000001C
:1000700058C0000056C0000054C0000052C000002C
:1000800050C000004EC000004CC000004AC000003C
:1000900048C0000046C0000044C0000042C000004C
:1000A00040C000003EC000003CC000003AC000005C
:1000B00038C0000036C0000034C0000032C000006C
:1000C00030C000002EC000002CC000002AC000007C
:1000D00028C0000026C0000024C0000022C000008C
:1000E00020C0000011241FBECFEFD1E2DEBFCDBF84
:1000F00000E00CBF16E0A0E0B2E0E8E2F9E000E0CA
:100100000BBF02C007900D92AC39B107D9F726E0BA
:10011000ACE9B6E001C01D92A23AB207E1F779D08E
:1001200001C46ECF9091C00095FFFCCF8093C600B4
:1001300080E090E008958091C0008823E4F78091EA
:10014000C60090E008951092C00088E18093C1003D
:1001500086E08093C20087E68093C4001092C500B9
:10016000ECE9F6E086E592E09383828391838083D5
:1001700008951092300188E18093310186E08093E8
:10018000320187E6809334011092350108959091F1
:10019000300195FFFCCF809336010895CF93C82F8F
:1001A0008EEFF5DF8C2FF3DF81EE94E00197F1F70E
:1001B00000C00000CF910895CF93DF93EC0102C0FF
:1001C0002196E5DF88818111FBCFDF91CF910895E2
:1001D0001092C80088E18093C90086E08093CA002D
:1001E00087E68093CC001092CD0008959091C800CE
:1001F00095FFFCCF8093CE000895CF93DF93EC0161
:1002000002C02196F3DF88818111FBCFDF91CF916E
:100210000895CF93DF93CDB7DEB769970FB6F89403
:10022000DEBF0FBECDBF11B88FEF82B98CDF84E681
:1002300092E09F938F9388D09CDF8EE0AFDF81E0C8
:10024000ADDF8EE792E0B8DFC3DF81E992E0D5DF72
:100250000F900F9080B18823E9F380B1823099F03C
:1002600018F4813039F06CC08430B1F0883009F472
:100270003CC066C08AEA92E0C0DF81E08FDF80EB9D
:1002800092E09ADF5DC08DEB92E0B7DF81E086DF20
:1002900083EC92E091DF54C011E01F0D81E07EDF1E
:1002A0008AEC92E089DFE12FF0E03197EE0FFF1F3B
:1002B000E050FE4F808191817FDF1F921F9380ED80
:1002C00092E09F938F93CE0101969F938F934FD08F
:1002D00084EE92E092DF0F900F900F900F900F90AE
:1002E0000F90183268F1F12E2BC0EE24EA94EF0C37
:1002F00081E054DF8BEE92E05FDF0E2D10E01F9265
:10030000EF9280ED92E09F938F93CE0101969F93A1
:100310008F932DD0F8013197EE0FFF1FE050FE4F65
:100320008081918149DF84EE92E067DF0F900F902A
:100330000F900F900F900F9081E08E1508F0FE2C1B
:1003400080B18130E9F386CFCF93DF93CDB7DEB7AD
:10035000AE014A5F5F4FFA0161917191AF018091E7
:100360009E0690919F0631D0DF91CF9108950F9313
:100370001F93CF93DF93CDB7DEB72E970FB6F894C8
:10038000DEBF0FBECDBF0E891F8986E08C831A8326
:1003900009838FEF9FE79E838D83AE01465E5F4F9B
:1003A000688D798DCE01019610D0EF81F885E00F30
:1003B000F11F10822E960FB6F894DEBF0FBECDBF90
:1003C000DF91CF911F910F9108952F923F924F92FD
:1003D0005F926F927F928F929F92AF92BF92CF92D5
:1003E000DF92EF92FF920F931F93CF93DF93CDB7DE
:1003F000DEB72B970FB6F894DEBF0FBECDBF6C01F2
:100400007B018A01FC0117821682838181FFBFC1B3
:10041000CE0101963C01F6019381F70193FD859190
:1004200093FF81917F01882309F4ADC1853239F4AE
:1004300093FD859193FF81917F01853221F4B6016F
:1004400090E0D6D1E8CF912C212C312CFFE1F3158F
:10045000D8F08B3279F038F4803279F08332A1F41D
:10046000232D20611DC08D3261F0803369F4232D6E
:10047000216016C0832D8260382EE32DE4603E2E6D
:100480002AC0F32DF8601DC037FC2DC020ED280FC9
:100490002A3040F08E32B9F436FC75C1232D206429
:1004A000322E19C036FE06C08AE0989E200D112417
:1004B000922E11C0EAE02E9E200D1124222EF32D43
:1004C000F0623F2E08C08C3621F4832D8068382ED0
:1004D00002C0883641F4F70193FD859193FF819125
:1004E0007F018111B3CF982F9F7D9554933028F4CD
:1004F0000C5F1F4F9FE399830DC0833631F0833724
:1005000071F0833509F055C020C0F80180818983DE
:100510000E5F1F4F88248394912C530112C0280131
:10052000F2E04F0E511CF801A080B18036FE03C0EE
:10053000692D70E002C06FEF7FEFC5014ED14C0115
:100540008201F32DFF773F2E15C0280122E0420ED5
:10055000511CF801A080B18036FE03C0692D70E007
:1005600002C06FEF7FEFC5012DD14C01F32DF06874
:100570003F2E820133FC19C0822D90E08816990627
:10058000A0F4B60180E290E033D12A94F5CFF501D2
:1005900037FC859137FE81915F01B60190E028D14B
:1005A00021102A9421E0821A91088114910479F78C
:1005B000E1C0843611F0893639F5F80137FE07C0FD
:1005C00060817181828193810C5F1F4F08C06081BF
:1005D0007181072E000C880B990B0E5F1F4FF32DB6
:1005E000FF763F2E97FF09C0909580957095619595
:1005F0007F4F8F4F9F4FF0683F2E2AE030E0A301DE
:1006000033D1882E861844C0853731F4232D2F7EB0
:10061000B22E2AE030E025C0932D997FB92E8F3677
:10062000C1F018F4883579F0AEC0803719F08837FA
:1006300021F0A9C0E92FE061BE2EB4FE0DC0FB2D54
:10064000F460BF2E09C034FE0AC0292F2660B22EE6
:1006500006C028E030E005C020E130E002C020E123
:1006600032E0F801B7FE07C0608171818281938119
:100670000C5F1F4F06C06081718180E090E00E5FCB
:100680001F4FA301F1D0882E8618FB2DFF773F2E38
:1006900036FE0DC0232D2E7FA22E891458F434FE71
:1006A0000BC032FC09C0832D8E7EA82E05C0B82C4D
:1006B000A32C03C0B82C01C0B92CA4FE0FC0FE01AE
:1006C000E80DF11D8081803321F49A2D997EA92EA9
:1006D00009C0A2FE06C0B394B39404C08A2D8678E4
:1006E00009F0B394A3FC10C0A0FE06C0B21480F4BD
:1006F000280C922C9B180DC0B21458F4B60180E25D
:1007000090E076D0B394F8CFB21418F42B1802C04E
:10071000982C212CA4FE0FC0B60180E390E068D095
:10072000A2FE16C0A1FC03C088E790E002C088E5E5
:1007300090E0B6010CC08A2D867851F0A1FE02C06F
:100740008BE201C080E2A7FC8DE2B60190E050D0C0
:10075000891430F4B60180E390E04AD09A94F8CF3F
:100760008A94F301E80DF11D8081B60190E040D03C
:100770008110F6CF222009F44ECEB60180E290E03F
:1007800037D02A94F7CFF6018681978102C08FEF88
:100790009FEF2B960FB6F894DEBF0FBECDBFDF9153
:1007A000CF911F910F91FF90EF90DF90CF90BF906E
:1007B000AF909F908F907F906F905F904F903F9001
:1007C0002F900895FC010590615070400110D8F7FA
:1007D000809590958E0F9F1F0895FC016150704089
:1007E00001900110D8F7809590958E0F9F1F089566
:1007F0000F931F93CF93DF93FB01238121FD03C050
:100800008FEF9FEF2CC022FF16C0468157812481B5
:1008100035814217530744F4A081B1819D012F5FB8
:100820003F4F318320838C93268137812F5F3F4F49
:100830003783268314C08B01EC01FB010084F18512
:10084000E02D1995892BE1F6D80116968D919C9192
:100850001797019617969C938E931697CE01DF916A
:10086000CF911F910F910895FA01AA27283051F1D5
:10087000203181F1E8946F936E7F6E5F7F4F8F4FD1
:100880009F4FAF4FB1E03ED0B4E03CD0670F781F30
:10089000891F9A1FA11D680F791F8A1F911DA11D15
:1008A0006A0F711D811D911DA11D20D009F468944E
:1008B0003F912AE0269F11243019305D3193DEF6F6
:1008C000CF010895462F4770405D4193B3E00FD0AC
:1008D000C9F7F6CF462F4F70405D4A3318F0495D97
:1008E00031FD4052419302D0A9F7EACFB4E0A6957A
:1008F0009795879577956795BA95C9F7009761059C
:10090000710508959B01AC010A2E069457954795F1
:1009100037952795BA95C9F7620F731F841F951FE6
:08092000A01D0895F894FFCF1B
:10092800F50201031103220338034D036A038D0303
:100938009603A603B803D603E803FC030F042804B0
:1009480039044C0460047A0484048D04A804BF04A8
:10095800DA04E904F704180538054E056D05840521
:10096800A705C805DC05EA0506061506250642069C
:10097800590670068B060000000300000000920074
:100988009B0000004D503320506C617965722054F3
:100998006573742050726F6772616D0A0D004C4365
:1009A800442054657374204D657373616765213FF6
:1009B800004D503320506C61796572205465737412
:1009C800204D6573736167653F00504320500D00EB
:1009D800506C61792F50617573650D0A0050432082
:1009E800530D0053746F700D0A004E6578740D0036
:1009F800504320462F547261636B253034642E6D4A
:100A080070330D00627566666572005072657669AE
:100A18006F75730D0031202D204265617420497473
:100A28000032202D2042696C6C6965204A65616E30
:100A38000033202D204963652049636520426162A7
:100A4800790034202D204974277320417765736F0E
:100A58006D6520426162790035202D204C65742730
:100A68007320476574204974204F6E210036202D6D
:100A7800204F6C64204D6163446F6E616C64204844
:100A880061642061204661726D0037202D2057680F
:100A98006572652074686520537472656574732087
:100AA80048617665204E6F204E616D650038202DB7
:100AB80020594D43410039202D2043656C656272F1
:100AC8006174696F6E003130202D204D656E20698C
:100AD8006E20426C61636B003131202D20546865B3
:100AE8002057617920596F75204D616B65204D65E0
:100AF800204665656C003132202D20547269626190
:100B08006C2044616E6365003133202D20426C6196
:100B1800636B206F72205768697465003134202D2B
:100B28002044616E63696E6720517565656E00319A
:100B380035202D205368652773204C696B65207418
:100B480068652057696E64003136202D2048756E1F
:100B58006772792045796573003137202D20526FEF
:100B6800636B205769746820596F75003138202DE0
:100B780020492057696C6C20537572766976650038
:100B88003139202D205368652773204F7574206FE5
:100B980066204D79204C696665003230202D20533F
:100BA800746179003231202D204261640032322094
:100BB8002D20506C617920546861742046756E6BE5
:100BC80079204D75736963003233202D204D616E95
:100BD80020696E20746865204D6972726F720032E8
:100BE80034202D2054686520576865656C73206F24
:100BF8006E2074686520427573003235202D2042BE
:100C08002D492D4E2D472D4F003236202D2054686A
:100C180072696C6C6572003237202D20546865202B
:100C28004672657368205072696E6365206F66202E
:100C380042656C20416972003238202D2054686169
:100C48007427732074686520576179202849204CDF
:100C5800696B6520497429003239202D2054686554
:100C6800204769726C204973204D696E65003330E6
:100C7800202D20496E20746865205374696C6C209F
:100C88006F6620746865204E696768740033312088
:100C98002D2052656D656D626572207468652054FB
:100CA800696D65003332202D20446F6E2774205300
:100CB800746F702054696C20596F752047657420D3
:100CC800456E6F756768003333202D2057616E6E4F
:100CD80061204265205374617274696E6720536F96
:100CE8006D657468696E67003334202D2057696C10
:100CF800642057696C642057657374003335202D60
:100D0800204C6F6C6C69706F70003336202D205347
:100D18006576656E746820496E6E696E67205374D7
:100D28007265746368003337202D2046756E6B79C1
:100D3800746F776E003338202D20412E4D2E2052AF
:100D48006164696F003339202D20446576696C2011
:100D580057697468206120426C7565204472657318
:100D680073003430202D204A6F636B204A616D2058
:100D78004D656761204D6978003431202D20546815
:100D88006520436869636B656E2044616E63650026
:100D98003432202D20446F20596F757220456172BE
:100DA800732048616E67204C6F77003433202D2004
:0C0DB800576F6F64636875636B73000015
:00000001FF
